{
  "contractName": "LimeFactory",
  "abi": [
    {
      "constant": true,
      "inputs": [
        {
          "name": "",
          "type": "uint256"
        }
      ],
      "name": "limes",
      "outputs": [
        {
          "name": "name",
          "type": "string"
        },
        {
          "name": "carbohydrates",
          "type": "uint8"
        },
        {
          "name": "fat",
          "type": "uint8"
        },
        {
          "name": "protein",
          "type": "uint8"
        }
      ],
      "payable": false,
      "stateMutability": "view",
      "type": "function"
    },
    {
      "anonymous": false,
      "inputs": [
        {
          "indexed": false,
          "name": "name",
          "type": "string"
        }
      ],
      "name": "FreshLime",
      "type": "event"
    },
    {
      "constant": false,
      "inputs": [
        {
          "name": "_name",
          "type": "string"
        },
        {
          "name": "_carbohydrates",
          "type": "uint8"
        },
        {
          "name": "_fat",
          "type": "uint8"
        },
        {
          "name": "_protein",
          "type": "uint8"
        }
      ],
      "name": "createLime",
      "outputs": [],
      "payable": false,
      "stateMutability": "nonpayable",
      "type": "function"
    }
  ],
  "bytecode": "0x608060405234801561001057600080fd5b50610567806100206000396000f3fe608060405234801561001057600080fd5b5060043610610053576000357c01000000000000000000000000000000000000000000000000000000009004806321310ecd14610058578063e0b6fcfc14610126575b600080fd5b6100846004803603602081101561006e57600080fd5b8101908080359060200190929190505050610208565b60405180806020018560ff1660ff1681526020018460ff1660ff1681526020018360ff1660ff168152602001828103825286818151815260200191508051906020019080838360005b838110156100e85780820151818401526020810190506100cd565b50505050905090810190601f1680156101155780820380516001836020036101000a031916815260200191505b509550505050505060405180910390f35b6102066004803603608081101561013c57600080fd5b810190808035906020019064010000000081111561015957600080fd5b82018360208201111561016b57600080fd5b8035906020019184600183028401116401000000008311171561018d57600080fd5b91908080601f016020809104026020016040519081016040528093929190818152602001838380828437600081840152601f19601f820116905080830192505050505050509192919290803560ff169060200190929190803560ff169060200190929190803560ff169060200190929190505050610306565b005b60008181548110151561021757fe5b9060005260206000209060020201600091509050806000018054600181600116156101000203166002900480601f0160208091040260200160405190810160405280929190818152602001828054600181600116156101000203166002900480156102c35780601f10610298576101008083540402835291602001916102c3565b820191906000526020600020905b8154815290600101906020018083116102a657829003601f168201915b5050505050908060010160009054906101000a900460ff16908060010160019054906101000a900460ff16908060010160029054906101000a900460ff16905084565b60008360ff161415151561031957600080fd5b60006080604051908101604052808681526020018560ff1681526020018460ff1681526020018360ff1681525090806001815401808255809150509060018203906000526020600020906002020160009091929091909150600082015181600001908051906020019061038d929190610496565b5060208201518160010160006101000a81548160ff021916908360ff16021790555060408201518160010160016101000a81548160ff021916908360ff16021790555060608201518160010160026101000a81548160ff021916908360ff1602179055505050507fe65ca226f7ab35846085554e9c72f162260bd2e4a6d6a752f0aacad4e0f18fe5846040518080602001828103825283818151815260200191508051906020019080838360005b8381101561045657808201518184015260208101905061043b565b50505050905090810190601f1680156104835780820380516001836020036101000a031916815260200191505b509250505060405180910390a150505050565b828054600181600116156101000203166002900490600052602060002090601f016020900481019282601f106104d757805160ff1916838001178555610505565b82800160010185558215610505579182015b828111156105045782518255916020019190600101906104e9565b5b5090506105129190610516565b5090565b61053891905b8082111561053457600081600090555060010161051c565b5090565b9056fea165627a7a72305820328bb23125f62b774ab6b2a23321f11b5eb214c7d04afb7a751efe5486459fc20029",
  "source": "pragma solidity ^0.5.0;\n\ncontract LimeFactory {\n\n    event FreshLime(string name);\n\n    struct Lime {\n        string name;\n        uint8 carbohydrates;\n        uint8 fat;\n        uint8 protein;\n    }\n\n    Lime[] public limes;\n\n    function createLime(string memory _name, uint8 _carbohydrates, uint8 _fat, uint8 _protein) public {\n        require(_carbohydrates != 0);\n        limes.push(Lime(_name, _carbohydrates, _fat, _protein));\n        emit FreshLime(_name);\n    }\n}",
  "sourcePath": "/Users/ognyanchikov/devbgWorkshop/contracts/LimeFactory.sol",
  "compiler": {
    "name": "solc",
    "version": "0.5.4+commit.9549d8ff.Emscripten.clang"
  },
  "schemaVersion": "1.0.1",
  "updatedAt": "2019-02-21T18:09:38.661Z"
}